:020000040000FA
:10000000000700206D020000710200007302000072
:100010007502000077020000790200000000000075
:100020000000000000000000000000007B02000053
:100030007D020000000000007F020000810200003D
:1000400083020000BD040000830200008302000060
:1000500061050000830200008302000083020000AB
:10006000830200008302000083020000830200007C
:10007000830200008302000083020000830200006C
:10008000830200008302000083020000830200005C
:10009000830200008302000083020000830200004C
:1000A000830200008302000083020000830200003C
:1000B0008302000083020000DD05000083020000CF
:1000C000830200008302000083020000830200001C
:1000D000830200008302000083020000830200000C
:1000E00083020000830200008302000083020000FC
:1000F00083020000830200008302000083020000EC
:1001000083020000830200008302000083020000DB
:1001100083020000830200008302000083020000CB
:1001200083020000830200008302000083020000BB
:1001300083020000830200008302000083020000AB
:1001400000000000000000000000000000000000AF
:100150008302000083020000190E000083020000E9
:10016000000000000000000000000000000000008F
:10017000000000000000000000000000000000007F
:10018000000000000000000000000000000000006F
:10019000000000000000000000000000000000005F
:1001A000000000000000000000000000000000004F
:1001B000390E000083020000830200008302000069
:1001C000830200008302000083020000830200001B
:1001D000830200008302000083020000830200000B
:1001E00083020000830200008302000083020000FB
:1001F00083020000830200008302000083020000EB
:10020000830200008302000083020000000000005F
:1002100083020000830200008302000083020000CA
:1002200083020000830200008302000083020000BA
:1002300083020000830200008302000083020000AA
:10024000830200008302000083020000830200009A
:10025000830200008302000083020000830200008A
:1002600083020000830200008302000000F00AB84D
:10027000FEE7FEE7FEE7FEE7FEE7FEE7FEE7FEE756
:10028000FEE7FEE700F002F800F03AF80AA090E876
:10029000000C82448344AAF10107DA4501D100F041
:1002A0002FF8AFF2090EBAE80F0013F0010F18BFD4
:1002B000FB1A43F001031847741300009413000065
:1002C000103A24BF78C878C1FAD8520724BF30C882
:1002D00030C144BF04680C60704700000023002454
:1002E00000250026103A28BF78C1FBD8520728BF46
:1002F00030C148BF0B6070471FB51FBD10B510BDA2
:1003000000F029F81146FFF7F7FF00F0D9FF00F0E1
:1003100047F803B4FFF7F2FF03BC00F04BF800000E
:1003200072B6704762B67047EFF3108072B67047CE
:1003300080F31088704730BF704702480249014A75
:10034000024B70470003002000070020000300203C
:10035000704770477047754600F028F8AE460500B4
:100360006946534620F00700854618B020B5FFF7D0
:10037000E4FFBDE820404FF000064FF000074FF0CB
:1003800000084FF0000B21F00701AC46ACE8C009B3
:10039000ACE8C009ACE8C009ACE8C0098D467047BC
:1003A0000446AFF300802046FFF7B3FF00487047D4
:1003B000A002002001491820ABBEFEE72600020083
:1003C000704700000148006870470000A890034093
:1003D00008B52B48006840F008002A49C1F8080118
:1003E000274800680090264800680090264800686A
:1003F00020F00800244908602448006840F0080004
:10040000224908602248006820F00800204908605E
:100410002048006840F008001E4908601948D0F8DC
:10042000000140F400301749C1F800014FF000000E
:10043000009002E00098401C009000981428F9D326
:1004400001201549086040F2231014490862002079
:1004500008600846406940F4704048610320086322
:1004600004200F4908604FF006000C49C1F8A400B1
:100470004FF0000088604FF00800086008BD0000E1
:1004800008E10F4000E00F4000740040207400407D
:100490001C75004028750040C49F03400090034035
:1004A000A09003400348006820F002000249C1F810
:1004B000FC037047FC5302400050024010B5264830
:1004C000006810F0010F20D0142000F06FFC2248CB
:1004D0000830006840F001001F49083108601F48DB
:1004E0000068042809DA1D480068002805DD1B485B
:1004F0000068801D1949086004E018480068C01EA3
:100500001649086000F0F2FD24E01348006810F07E
:10051000020F1FD0142000F049FC0F48083000687B
:1005200040F002000C49083108600C4800680A28B5
:1005300009DA0A480068062805DD08480068801FB7
:100540000649086004E005480068C01C03490860CB
:1005500000F0CCFD10BD0000145400406C000020E1
:1005600010B51948006810F0020F2BD0142000F0CD
:100570001DFC15480830006840F00200124908319F
:100580000860124812490968405C20281AD11148B5
:100590000078582807D10D490D4A126888544F2019
:1005A0000C49087007E04F200849094A126888542E
:1005B00058200849087000F099FD07480068401C61
:1005C0000549086010BD000014440240540000209A
:1005D0006C0000205E0000205000002010B51E4876
:1005E000006810F0100F18D0142000F0DFFB1A483C
:1005F0000830006840F010001749083108601748BB
:100600000068401E1549086008460068012801DAA4
:100610000920086000F06AFD1AE00F48006810F039
:10062000010F15D0142000F0C1FB0B480830006802
:1006300040F0010008490831086008480068401C83
:100640000649086008460068092801DD01200860A5
:1006500000F04CFD10BD0000145402406C0000205E
:10066000002003E00021034A1154401CB0F5FC7F38
:10067000F8DB70477000002010B5024800F004F865
:1006800010BD00007000002070B50546002108462E
:1006900000F0E9F8002404E02957012000F0EAFD09
:1006A000641CB4F5FC7FF7DB70BD000008B54E4854
:1006B000006840F010004D49C1F804010846D0F828
:1006C000080140F00100C1F80801494800680090A5
:1006D0004848006840F0C000464908604648006845
:1006E00040F02C00444908600846006820F0C00033
:1006F00008604248006840F0EC004049086040480B
:100700000068404900EA01003F4908443C4908604C
:100710000846006820F07F400860A1F104000068EE
:1007200020F0EC00A1F1040108603848406820F096
:100730000200364948600846406820F004004860DE
:100740003348006820F00F00314908602F480069E5
:1007500020F0FF0000F118002C49086108460068ED
:100760004FF6C07120EA0100284908600846006879
:1007700020F0300008600846006820F00F0000F10B
:10078000070008600846406840F0020048604FF0EB
:1007900000004FF04021C1F80002009002E00098F4
:1007A000401C009000980A28F9D38020194908605D
:1007B0004FF021014FF0000000F05CFD6FF04601AA
:1007C000002000F057FD0421002000F053FD14210B
:1007D000002000F04FFD2021002000F04BFD0C21F7
:1007E000002000F047FD08BD04E10F4000E00F408D
:1007F00008E10F4000440040204400401C450040F8
:100800002C450040FF000FFF002220000080004028
:10081000C88F00400042004070B50546002101200D
:1008200000F028FD00240AE0A5F1200000EB800084
:10083000064A10440157012000F01CFD641C052CE1
:10084000F2DB0021012000F015FD70BDE212000076
:1008500010B5044603E02078FFF7DEFF641C207823
:100860000028F8D110BD70B504460D460B2C01DCF4
:10087000052D00DD70BDC4EBC40040F0800041B226
:10088000002000F0F7FC45F0400041B2002000F0ED
:10089000F1FC00BFEEE700001D48006F40F0004093
:1008A0001B4908670846006F40F400600867084667
:1008B000006E20F4F86008660846006E00F5A86037
:1008C00008660846006F20F0700008670846006F51
:1008D00008670846006F20F4005008670846006F5C
:1008E00040F0804008670846006F20F0FE5000F19D
:1008F0008070086700BF0648006D10F0400FFAD006
:100900000348006F20F40060014908677047000049
:1009100000E00F4010B52748006840F0020026496B
:10092000C1F808014FF00000244908602448254917
:1009300008604FF0030001F1040108604FF000006F
:1009400001F10401086001F1040108601E4908601A
:100950004FF003001D4908601D4908601D480068EC
:1009600020F003001B49086001F10400006820F03A
:10097000030001F10401086001F10400006820F0A7
:10098000030001F1040108604FF003001249086000
:100990001248006840F00300104908604FF42040FE
:1009A0000F4908604FF002000E490860FFF7BAFCDB
:1009B00010BD000008E10F4000E00F4000000020E3
:1009C0004B434F4C20550040005400402054004001
:1009D0001C550040045400401C540040105400407A
:1009E00000E400E000E100E010B52948006840F0B4
:1009F00010002849C1F808014FF00000264908609E
:100A00002648274908604FF00F0001F104010860F3
:100A10004FF0000001F10401086001F104010860D9
:100A20004FF00D001F4908604FF002001E4908609A
:100A30004FF00F001D4908601D48006820F00200BB
:100A40001B49086001F10400006820F0020001F178
:100A50000401086001F10400006820F0020001F1C7
:100A6000040108604FF00200124908601248006853
:100A700040F00200104908604FF0A0000F490860E4
:100A80004FF010000E490860FFF74CFC10BD00004D
:100A900008E10F4000E00F40000000204B434F4CA6
:100AA0002045024000440240204402401C450240D0
:100AB000044402401C4402401044024004E400E0AC
:100AC00000E100E010B52F48006840F020002E49FA
:100AD000C1F808012B4800682C4908602C482D49B2
:100AE00008604FF0130001F1040108604FF00000AE
:100AF00001F10401086001F1040108604FF00200F7
:100B0000254908604FF00000244908604FF01300A9
:100B1000234908602348006840F01100214908601B
:100B20002148006820F011001F49086001F104000D
:100B3000006820F0110001F10401086001F10400D7
:100B4000006820F0110001F1040108604FF011006D
:100B5000164908601648006840F011001449086002
:100B60001448006820F47F0040F420001149086018
:100B70004FF080404FF0E021C1F80001FFF7D2FBB9
:100B800010BD000008E10F4000E00F400000002011
:100B90004B434F4C20550240005402402054024029
:100BA0001C55024010550240045402401C5402409F
:100BB000105402401CE400E00146044A002002E018
:100BC0000B5C1354401C0828FADB70478802002095
:100BD0000146044A002002E00B5C1354401C082824
:100BE000FADB70477002002010B50446FFF754FE90
:100BF0004E48006840F020004C4908604CA0FFF7C8
:100C0000E7FF4E484E4988624E48C8620863486311
:100C100000204D4908604A4908604C4908604C4929
:100C200008604C4908604C4908604C484C490860D1
:100C30000F2043490861002048614A4908604A483A
:100C400004700020494908604949086049484A49F8
:100C500008604548007820B94848486000F0C2F96B
:100C60003AE04148007801282BD145484249486084
:100C700001203E4908602D48006840F010002B49D3
:100C8000086000F0AFF900203E49C860086002200B
:100C9000486041F63F708862002088630120486206
:100CA00088613948006820F47F0040F460003649CC
:100CB00008604020354908604FF001003149C860A4
:100CC0000AE029480078022803D131482A494860BF
:100CD00002E03048284948602FA0FFF76DFF002050
:100CE0003049C8600860022048601D480068401E06
:100CF0008862002088630120486288612248183099
:100D0000006820F0FF0040F040001F4918310860E3
:100D10004FF080501D4908604FF001002149C86024
:100D2000FFF756FB20480649C86210BD04E60F4095
:100D300055542E362E30337800000000DA150000AE
:100D4000680200208A1500002400002034000020E2
:100D500030000020200000202800002000350C007A
:100D60000C0000201C00002018000020380000208B
:100D70003C000020C214000010000020EA14000013
:100D8000121500000040034044E400E008E100E0E8
:100D90003A1500006215000020202020202020208D
:100DA0000000000000500340B2150000154A126810
:100DB00042F00402134B1A600022134B1A60134BCB
:100DC0001A60134AD268124BDA6000221A600222BB
:100DD0005A60104A9A6201225A621A46D26842F058
:100DE0000102DA60002109E000BF094AD26912F06D
:100DF000010FFAD00122064B5A62491C8142F3D3FB
:100E00007047000004E60F400400002008000020A6
:100E100000200340FF69180001200449486204488B
:100E200000684FEA10100349086070470040034013
:100E3000A890034000C0004000B508480068401E6C
:100E40000749886201204862FFF7BCFA40F6E44196
:100E50004843000B0349086000BD00000C0000205F
:100E6000005003401C000020ABE056A000F032F917
:100E700000F018F90446204600F020F954A000F0D4
:100E800029F9642C0AD004DC202C41D0612C21D11A
:100E900021E0732C7BD0772CF9D15EE01420FFF792
:100EA00085FF4C480068401C4A4908600AE04948F0
:100EB0000068401C4749086008460068092801DDB1
:100EC00001200860444843490968405C2028EED16D
:100ED00000F00CF974E01420FFF768FF3D4800684B
:100EE000401E3C4908600AE03A480068401E394903
:100EF000086008460068012801DA092008603648C1
:100F000034490968405C2028EED100F0EFF857E042
:100F10001420FFF74BFF30482E490968405C202819
:100F20001AD12E480078582807D12B49294A12682F
:100F300088544F202949087007E04F202649254A48
:100F40001268885458202549087000F0CFF82448CA
:100F50000068401C2249086032E01420FFF726FF99
:100F60001C48006804280ADA1A480068002806DDD0
:100F700018480068801D1749086005E007E015481B
:100F80000068C01E1349086000F0B0F818E0142093
:100F9000FFF70CFF0F4800680A2809DA0D480068BF
:100FA000062805DD0B480068801F0A49086004E038
:100FB00008480068C01C0749086000F097F800BFA7
:100FC00000BF52E70A0D496E7075743A00000000C8
:100FD0000A0D00006C000020540000205E0000207C
:100FE0005000002008B52748006840F0010026495D
:100FF000C1F804010846D0F8080140F00100C1F82A
:1010000008012248006800902048006800902048AD
:10101000006B20F001001E4908634FF02B0048626E
:101020004FF01A0088624FF07000C86219480068DB
:1010300020F00F001749086008460068086014484F
:10104000006B40F00100124908631348006840F04B
:101050000300114908601148006840F003000F497F
:1010600008600F48006820F0FF0000F111000C49F3
:101070000860A1F10400006820F00300A1F1040160
:10108000086008BD04E10F4000E00F4008E10F4098
:1010900000C00040C8CF0040204400401C45004034
:1010A0002C45004000BF0448806910F0100FFAD1B1
:1010B00001480068C0B2704700C0004000BF04494A
:1010C000896911F0200FFAD10149086070470000CA
:1010D00000C0004000B5024603E012F8010BFFF724
:1010E000EDFF10780028F8D100BD000010B5FFF723
:1010F000D9F9FFF7B5FAFFF7BFFA012052490860A6
:101100005249086000205249086014E050490878AC
:101110000121FFF7A8FB4FA0FFF79AFB4C49087885
:101120000321FFF7A0FB4BA0FFF792FB48480068A4
:10113000401C47490860464800680828E6DB002054
:101140004549086014E0444801780220FFF78BFB12
:1011500042A0FFF77DFB404801780520FFF783FBA5
:101160003EA0FFF775FB3C480068801C3A490860C8
:10117000394800680528E6DB00203549086021E091
:1011800000203549086014E0314A1178324A10785D
:10119000FFF769FB2D490A680968491C2B4B196048
:1011A0002F49885CFFF738FB2B480068C01C2A4990
:1011B0000860294800680828E6DB25480068801C8C
:1011C00023490860224800680528D9DB002020490F
:1011D000086025E001202049086018E01A480068EE
:1011E00020490968884208D1194A11781A4A1078AA
:1011F000FFF739FB2E20FFF70FFB13480068401C58
:101200001149086014480068C01C1349086012485E
:1012100000680828E2DB0E480068801C0C49086062
:101220000B4800680528D5DB00210820FFF71BFBD1
:101230000DA0FFF70DFB01210920FFF714FB0C495E
:101240000878FFF7E9FA10BD4C00002048000020A4
:10125000400000202D000000440000207C00000021
:10126000540000206C0000205475726E00000000D5
:101270005E00002098B900BF0F4AD26802F0100249
:10128000102AF9D000220D4B1A600B4A916000BF62
:10129000094AD26802F01002102AF9D00AE000BF11
:1012A000054AD26812F0020FFAD04022034B1A60AE
:1012B000014A9160704700000080004000410040FA
:1012C0000120FFF791FCFFF7FDFBFFF78DFBFFF718
:1012D00021FBFFF7EBF9FFF709FFFFF7C5FD00BFA3
:1012E000FEE7000000000000005F000000070007AC
:1012F00000147F147F14242A7F2A122313086462A7
:1013000036495522500005030000001C2241000010
:1013100041221C0014083E081408083E080800502A
:10132000300000080808080800606000002010086D
:1013300004023E5149453E00427F4000426151490E
:10134000462141454B311814127F10274545453938
:101350003C4A494930017109050336494949360675
:101360004949291E00363600000056360000081490
:1013700022410014141414140041221408020151D3
:101380000906324979413E7E1111117E7F49494952
:10139000363E414141227F4141221C7F494949411A
:1013A0007F090909013E4149497A7F0808087F0001
:1013B000417F41002040413F017F081422417F408E
:1013C0004040407F020C027F7F0408107F3E414175
:1013D000413E7F090909063E4151215E7F091929D5
:1013E00046464949493101017F01013F4040403FA4
:1013F0001F2040201F3F4038403F631408146307FC
:10140000087008076151494543007F4141000204CB
:101410000810200041417F000402010204404040C6
:101420004040000102040020545454787F48444452
:10143000383844444420384444487F38545454187D
:10144000087E0901020C5252523E7F0804047800C3
:10145000447D40002040443D007F1028440000416E
:101460007F40007C041804787C08040478384444E5
:1014700044387C14141408081414187C7C080404E0
:10148000084854545420043F4440203C4040207CB1
:101490001C2040201C3C4030403C44281028440C78
:1014A0005050503C4464544C440008364100000005
:1014B0007F0000004136080010080810081F247C37
:1014C000241F5468657265206973206E6F206772EF
:1014D0006164657220666F72204C61622031350054
:1014E0000000000000000000000053696D756C6191
:1014F000746564204E6F6B696135313130206F6ED9
:10150000205041312D30000000000000000000009C
:1015100000005265616C204E6F6B6961353131306E
:10152000206F6E205041372D322B53636F70652032
:101530006F6E205041312D3000005265616C204E9D
:101540006F6B696135313130206F6E205041372D1E
:101550003200000000000000000000000000000059
:1015600000004E6F204E6F6B6961353131302C2099
:101570006E6F2073636F7065000000000000000054
:10158000000000000000000000002000000000003B
:10159000000000000000000000000000000000004B
:1015A000000000000000000000000000000000003B
:1015B0000000544578615320697320696E6974692D
:1015C000616C697A656420666F72204C61622031BB
:1015D0003500000000000000000047726164696E81
:1015E00067206973206E6F7420696D706C656D651E
:1015F0006E74656420666F722074686973206C6114
:101600006200446F6E652067726164696E670000F6
:1016100000000000000000000000000000000000CA
:101620000000000000000000000000004C16000058
:101630000000002070000000C0020000BC16000086
:101640007000002090060000DC0200000000000096
:1016500000000000000000008038010000000000D1
:10166000000000000000000000000000000000007A
:10167000000000000000000000000000000000006A
:10168000000000000000000000000000000000005A
:101690000000000001000000010000000000000048
:1016A0006120202020202020202058584F000000BA
:0C16B0000000000000000000010000002D
:040000050000026D88
:00000001FF
